:1000000012C0189518951895189518951895189563
:10001000B3C01895189518951895189518951895B2
:1000200018951895189504E00EBF00E00DBF07E085
:1000300007BB8A988B980CE002BBA09A07E109B92C
:10004000539A549A04E009BF03E00EBD08EC0CBDBE
:100050000FEA0DBDF894A895829B04D0839B0DD028
:1000600083C0F9CF21E0889478941BD080B382FFBD
:10007000FDCFF89420E028BB089526D0309535BBFD
:1000800004D080B383FD0CC0F9CF0F931F930AE017
:100090001CE81A95F1F70A95D9F71F910F91089569
:1000A00008957CE45DD079E65BD073E659D078E6BC
:1000B00057D074E755D070E253D071E651D07EE648
:1000C0004FD071E24DD0089574E54AD07FE648D014
:1000D0007EE646D070E244D071E642D07EE640D063
:1000E00071E23ED008957637D9F571E439D075E0E4
:1000F00037D076E535D075E033D072E531D075E094
:100100002FD074E52DD075E62BD073E729D074E796
:1001100027D070E725D072E723D07FE621D077E69D
:100120001FD072E71DD071E61BD07DE619D07DE6A9
:1001300017D075E015D076E513D075E611D072E7CB
:100140000FD07EE20DD07AE30BD075E009D071E3D9
:1001500007D07EE205D073E303D075E301D00895A4
:100160005D9BFECF7CB908955F9B75CF7F937CB17B
:10017000BADF00D07F91F8CFF8940F9328BB221FED
:1001800023FD21E008EC0CBD0FEA0DBD0F91789422
:020190001895C0
:00000001FF
