:1000000012C0189518951895189518951895189563
:100010001895189518951895189518951895189578
:1000200018951895189500E00DBF04E00EBF52D04A
:100030008DD03BD097D004E574D005E672D003E7AD
:1000400070D004E76ED000E26CD006E66AD005E717
:1000500068D005E666D002E764D000E262D004E62C
:1000600060D001E65ED003E75CD084D00DE659D0C5
:1000700009E757D001E455D006E553D002E551D049
:1000800000E24FD00CE44DD003E44BD004E449D05F
:1000900000E247D006E545D002E343D00EE241D06E
:1000A00008E73FD000E23DD0C4CF8F9383E1815079
:1000B0000AD0E8F78F9108950FEF1AE10A95F1F74A
:1000C0001A95E1F708950FEF18E60A95F1F71A95DA
:1000D000E1F708958A9A8B9A8C9A8D9A8E9A8F9AC4
:1000E00092982AE0E9DF2A95E9F700E302BB28D0DD
:1000F000E3DF00E302BB24D0DFDF24E1DDDF2A956C
:10010000E9F700E302BB1CD0D7DF00E202BB18D046
:10011000D3DF08E208D01ED019D006E004D01ED0EC
:10012000089524E001C020E0102F1295007F022BDB
:10013000107F122B02BB04D012BB02D0BDDF08958A
:10014000939A0000000000009398089501E0EBDF0F
:10015000B3DF089508E0E7DFAFDF08950EE0E3DFE7
:10016000ABDF089502E0DFDFA7DF089500E8DBDF03
:10017000A3DF089500ECD7DF9FDF08950068D3DF89
:040180009BDF089564
:00000001FF
